{
  "_format": "hh-sol-artifact-1",
  "contractName": "L1GasCalculator",
  "sourceName": "contracts/L1GasCalculator.sol",
  "abi": [
    {
      "inputs": [],
      "name": "DECIMALS",
      "outputs": [
        {
          "internalType": "uint256",
          "name": "",
          "type": "uint256"
        }
      ],
      "stateMutability": "view",
      "type": "function"
    },
    {
      "inputs": [
        {
          "internalType": "bytes",
          "name": "_data",
          "type": "bytes"
        },
        {
          "internalType": "uint256",
          "name": "l1BaseFee",
          "type": "uint256"
        },
        {
          "internalType": "uint256",
          "name": "blobBaseFee",
          "type": "uint256"
        },
        {
          "internalType": "uint32",
          "name": "baseFeeScalar",
          "type": "uint32"
        },
        {
          "internalType": "uint32",
          "name": "blobBaseFeeScalar",
          "type": "uint32"
        }
      ],
      "name": "getL1FeeEcotone",
      "outputs": [
        {
          "internalType": "uint256",
          "name": "",
          "type": "uint256"
        }
      ],
      "stateMutability": "pure",
      "type": "function"
    }
  ],
  "bytecode": "0x608060405234801561001057600080fd5b506107ce806100206000396000f3fe608060405234801561001057600080fd5b50600436106100365760003560e01c80632e0f26251461003b578063a56eba5c14610059575b600080fd5b610043610089565b60405161005091906101ed565b60405180910390f35b610073600480360381019061006e91906103ca565b61008e565b60405161008091906101ed565b60405180910390f35b600681565b60008061009a87610123565b90506000866010866100ac9190610490565b63ffffffff166100bc91906104cd565b90506000868563ffffffff166100d291906104cd565b9050600081836100e2919061050f565b846100ed91906104cd565b90506006600a6100fd9190610676565b601061010991906104cd565b8161011491906106f0565b94505050505095945050505050565b6000806000905060008351905060005b818110156101bc57600060f81b85828151811061015357610152610721565b5b602001015160f81c60f81b7effffffffffffffffffffffffffffffffffffffffffffffffffffffffffffff19160361019957600483610192919061050f565b92506101a9565b6010836101a6919061050f565b92505b80806101b490610750565b915050610133565b50610440826101cb919061050f565b92505050919050565b6000819050919050565b6101e7816101d4565b82525050565b600060208201905061020260008301846101de565b92915050565b6000604051905090565b600080fd5b600080fd5b600080fd5b600080fd5b6000601f19601f8301169050919050565b7f4e487b7100000000000000000000000000000000000000000000000000000000600052604160045260246000fd5b61026f82610226565b810181811067ffffffffffffffff8211171561028e5761028d610237565b5b80604052505050565b60006102a1610208565b90506102ad8282610266565b919050565b600067ffffffffffffffff8211156102cd576102cc610237565b5b6102d682610226565b9050602081019050919050565b82818337600083830152505050565b6000610305610300846102b2565b610297565b90508281526020810184848401111561032157610320610221565b5b61032c8482856102e3565b509392505050565b600082601f8301126103495761034861021c565b5b81356103598482602086016102f2565b91505092915050565b61036b816101d4565b811461037657600080fd5b50565b60008135905061038881610362565b92915050565b600063ffffffff82169050919050565b6103a78161038e565b81146103b257600080fd5b50565b6000813590506103c48161039e565b92915050565b600080600080600060a086880312156103e6576103e5610212565b5b600086013567ffffffffffffffff81111561040457610403610217565b5b61041088828901610334565b955050602061042188828901610379565b945050604061043288828901610379565b9350506060610443888289016103b5565b9250506080610454888289016103b5565b9150509295509295909350565b7f4e487b7100000000000000000000000000000000000000000000000000000000600052601160045260246000fd5b600061049b8261038e565b91506104a68361038e565b92508282026104b48161038e565b91508082146104c6576104c5610461565b5b5092915050565b60006104d8826101d4565b91506104e3836101d4565b92508282026104f1816101d4565b9150828204841483151761050857610507610461565b5b5092915050565b600061051a826101d4565b9150610525836101d4565b925082820190508082111561053d5761053c610461565b5b92915050565b60008160011c9050919050565b6000808291508390505b600185111561059a5780860481111561057657610575610461565b5b60018516156105855780820291505b808102905061059385610543565b945061055a565b94509492505050565b6000826105b3576001905061066f565b816105c1576000905061066f565b81600181146105d757600281146105e157610610565b600191505061066f565b60ff8411156105f3576105f2610461565b5b8360020a91508482111561060a57610609610461565b5b5061066f565b5060208310610133831016604e8410600b84101617156106455782820a9050838111156106405761063f610461565b5b61066f565b6106528484846001610550565b9250905081840481111561066957610668610461565b5b81810290505b9392505050565b6000610681826101d4565b915061068c836101d4565b92506106b97fffffffffffffffffffffffffffffffffffffffffffffffffffffffffffffffff84846105a3565b905092915050565b7f4e487b7100000000000000000000000000000000000000000000000000000000600052601260045260246000fd5b60006106fb826101d4565b9150610706836101d4565b925082610716576107156106c1565b5b828204905092915050565b7f4e487b7100000000000000000000000000000000000000000000000000000000600052603260045260246000fd5b600061075b826101d4565b91507fffffffffffffffffffffffffffffffffffffffffffffffffffffffffffffffff820361078d5761078c610461565b5b60018201905091905056fea264697066735822122087edaeca2afeb3ecf97e405dc77f7016480f4e977ae13519b568d662db1b9c9364736f6c63430008130033",
  "linkReferences": {},
  "deployedLinkReferences": {}
}